:020000040800F2
:1000000000500020811600087D1600087B160008AD
:100010007B1600087B1600087B1600080000000015
:100020000000000000000000000000007D16000835
:100030007D160008000000007D1600087D160008EF
:100040007B1600087B1600087B1600087B1600084C
:100050007B1600087B1600087B1600087B1600083C
:100060007B1600087B1600087B1600087B1600082C
:100070007B1600087B1600087B1600087B1600081C
:100080007B1600087B1600087B1600087B1600080C
:100090007B1600087B1600087B1600087B160008FC
:1000A0007B1600087B1600087B1600087B160008EC
:1000B0007B1600087B1600087B1600087B160008DC
:1000C0007B160008750100087B1600087B160008E7
:1000D0007B1600082D0600087B1600087B1600081A
:1000E0007B1600087B1600087B1600087B160008AC
:1000F0007B1600087B1600087B1600087B1600089C
:100100007B1600087B1600087B1600087B1600088B
:100110007B1600087B1600087B1600087B1600087B
:100120007B1600087B1600087B1600087B1600086B
:100130007B1600087B1600087B1600087B1600085B
:100140007B1600087B1600087B1600087B1600084B
:1001500001F036B810B54FF4417001F077F9BDE801
:1001600010404FF4005300220221014800F074BBFC
:100170000010014013B53F4A3F4B517829B9012186
:100180005170196821F400511960196881F4005107
:100190001960196881F400511960196881F40051DF
:1001A0001960196881F40051196034490968009197
:1001B000117803295BD8DFE801F01D4102083048BF
:1001C00001684C07FCD5032111702E4A1268019278
:1001D000009A91074BD5019A520748D51A6882F4C4
:1001E00000521A601A6882F400521A60AA22264B42
:1001F0001A603CE0009B9B0739D501234FF4C06196
:100200002248137000F0D8FB1E4B21481B68019355
:100210001D4B1B6800F088FB1D4800F0D6FB1848FA
:100220001C4903680A681340DC07FAD500225021F4
:10023000174802B0BDE8104000F0B6BB009B59065D
:1002400015D50F490B689B07FCD5124B1B680E4B4D
:100250001B6893780133DBB2022B937007D10E49F0
:100260000E4809880C0AC9B204600160137002B01C
:1002700010BD00BF180000200C10014014580040B1
:1002800014540040185800401058004000580040D6
:10029000005400401854004000000020105400405A
:1002A00038B50024174D00F08BFFFFF753FF2C608B
:1002B00000F04AF900F046F8134800F0A1F913499C
:1002C000114800F0A3F923462146114A99540133FD
:1002D000B3F5807FFAD100F05BF850210D4800F0B3
:1002E0007DF82B680C4A23F400532B600B4B00BFA6
:1002F000013BFCD11378002BF8D12B6883F4005319
:100300002B60F3E70C100140003801406C18000826
:10031000250000200058004018000020006A180046
:100320000322C0231146014800F096BA000C014098
:1003300003224FF440631146014800F08DBA00BF1C
:10034000000C014010B540F29530104C01F07EF8E1
:1003500040F2033001F07AF8FFF7E2FF204600F0A8
:10036000C7FA204600F0DBFA2046022100F001FB2C
:100370002046002100F03DFB20460822002100F02D
:10038000B2FB2046BDE8104000F0C4BA0054004063
:1003900010B540F29630104C01F058F840F203309E
:1003A00001F054F8FFF7C4FF204600F0A1FA204600
:1003B00000F0B5FA2046022100F0DBFA20460021C9
:1003C00000F017FB20460822002100F08CFB20469D
:1003D000BDE8104000F09EBA0058004038B5044611
:1003E0000D4600F09CFA2046E9B200F0ACFA0A4B48
:1003F0009C420CBF1F20212001F08CF920464FF4B5
:10040000007100F0D9FA204600F084FA2046BDE8D9
:10041000384000F0DABA00BF005400402DE9F8433C
:100420000446894690461E4600F07EFA204600F0BB
:10043000CCFA6369A26904F114071340D90704F1E7
:100440001805F6D501225FFA89F1204600F0ACFAD2
:100450003B689A07FCD52B68002506F1FF39B542A9
:1004600001D1BDE8F883A94502D1204600F0B2FAD7
:100470003B685B06FCD5204600F09BFA08F80500B7
:100480000135ECE72DE9F8430446894615461E463A
:1004900000F04AFA204600F098FA6369A26904F174
:1004A00014071340D90704F11808F6D500225FFAA3
:1004B00089F1204600F078FA3B689A07FCD5D8F815
:1004C00000302E44B54201D1BDE8F88315F8011B78
:1004D000204600F055FA3B685B07FCD5F2E700BF09
:1004E000014B1878704700BF1C000020004870477F
:1004F00049040020002340F201111A4604481A540E
:1005000001338B42FBD1034B5A801A70704700BFF6
:10051000490400201C00002010B50A4C40F20230B3
:1005200000F094FF20464FF400730222032100F0F4
:1005300093F92046BDE810404FF480630222002169
:1005400000F08AB90008014010B5FFF7E5FF154C2F
:10055000252001F0DFF840F20E3000F077FF204652
:100560004FF4E13100F0EEFF2046082100F0FEFFDD
:100570002046002101F003F820460C2101F00BF881
:100580002046002101F001F82046002101F009F881
:10059000054A2046BDE81040136843F0200313606D
:1005A00001F005B8003801400C380140024B1868D2
:1005B000C0F3C010704700BF0C3801400A4B10B5A3
:1005C00018461A681206FCD4084A4C1C54600A7873
:1005D0000749D2B20A601A6842F080021A600368C2
:1005E0001B06FCD410BD00BF0C3801401C000020CD
:1005F000043801400149FFF7E1BF00BF9E18000821
:100600000149FFF7DBBF00BFA1180008054B4A1CDA
:100610005A600B78044ADBB21360936843F080039E
:10062000936070471C00002004380140284B30B50F
:100630001A6894061BD5274A1268900617D5264AD1
:1006400026490868157884B2254A002D30D00D2C33
:1006500021D1012010720C60196841F080011960ED
:10066000012111705188FF2984BF002151801A682F
:1006700011060FD5174A126812060BD518490A7AC7
:10068000CAB10A20154A106000220A721A6822F0C4
:1006900080021A6030BD0C60518889B24C1CA4B233
:1006A0005480104C60540020518889B26054D9E7BE
:1006B0000D2CF1D1D4E74A68002AEBD0107800283D
:1006C000E4D0531C4B601378044ADBB21360E1E7BB
:1006D0000C3801400038014004000020043801407B
:1006E0001C000020490400200D4BF0B41A460024E1
:1006F0000A2502F8224F0B4C03F123066768B41A4F
:1007000029B9C4F123011944F0BCFFF757BFB1FB6D
:10071000F5F405FB1411795C02F8011D2146EEE7A2
:1007200026040020040000200149FFF747BF00BF56
:10073000A818000810B4084B5A680B09D45C074B82
:1007400001F00F011C70525C19465A7000229A7019
:1007500010BCFFF733BF00BF0400002026040020B8
:1007600038B504460D46FFF7DFFF29462046BDE8B1
:100770003840FFF7DFBF10B40B4B5A680B0BD45C4B
:100780000A4B1C70C1F30324145D5C70C1F30314A5
:10079000145D01F00F019C70525C1946DA70002262
:1007A0001A7110BCFFF70ABF0400002026040020C5
:1007B00038B504460D46FFF7B7FF29462046BDE889
:1007C0003840FFF7D8BF10B4134B5A680B0FD45CF6
:1007D000124B1C70C1F30364145D5C70C1F30354CD
:1007E000145D9C70C1F30344145DDC70C1F30334E9
:1007F000145D1C71C1F30324145D5C71C1F3031417
:10080000145D01F00F019C71525C1946DA710022EF
:100810001A7210BCFFF7D2BE04000020260400208C
:1008200038B504460D46FFF77FFF29462046BDE850
:100830003840FFF7C8BF70B50C4615460646FFF7AF
:1008400073FF2544AC4200D170BD14F8011B304643
:10085000FFF770FFF6E700BF2DE9F04300264FF0E9
:100860000F0E43F6F8789C46036847684CFA06F486
:10087000E4071BD5072E94BF9946B946B4B28BBF87
:100880004444A400A400A4B288BFA4B20EFA04F5A4
:1008900029EA0509A51C02FA05F501FA04F42C431E
:1008A00044EA0904082E2CBF274623460136102EA1
:1008B000DCD103604760BDE8F08300000143024BD8
:1008C00041F080011960704700000140034A13683D
:1008D00023F0E063194301431160704704000140B5
:1008E000024A136818431060704700BF1C000140A3
:1008F000074B984204D003F58063984204D07047B8
:1009000040F2152000F0BEBD40F21620FAE700BF0D
:1009100000540040036843F001030360704703681C
:1009200023F0010303607047036843F4807303609E
:100930007047036843F4007303607047036823F44F
:10094000007303607047490041F480418160704743
:1009500041F40041816070474900C1607047C3683D
:1009600043F00103C3607047C36823F00103C36011
:100970007047436823F03F039BB2194341607047BF
:1009800001617047C36943F40043C3617047C369A1
:1009900023F40043C3617047C36903F470431943F0
:1009A000C16170470162704742EA4102D2B20261FE
:1009B00070470069C0B2704743681943416070478F
:1009C000436823EA010141607047036843F4806390
:1009D00003607047036823F4806303607047036813
:1009E00043F4006303607047036823F4006303600B
:1009F0007047C36919B923F48043C361704743F456
:100A00008043FAE7436843F40063436070474368F8
:100A100023F4006343607047436843F480534360AA
:100A20007047436823F48053436070472DE9F041D9
:100A30000446DDE906651F4673BB45B32046FFF754
:100A400073FFFFF7C2FF6369A06904F11407034055
:100A5000D80704F11802F6D5490041F00101C9B2E6
:100A600004F1100821613B689907FCD51368002246
:100A7000691E8A4202D12046FFF7ACFF3B685B0645
:100A8000FCD5D8F80030B35401329542F1D120465C
:100A9000BDE8F041FFF74DBFA36904F118089807BE
:100AA000FAD42046FFF740FF6369D8F800C003F08E
:100AB000010313EA0C0F04F11400F5D04B00DBB274
:100AC00004F1100C236103689B07FCD5D8F80030B3
:100AD00017449742B1D012F8013BCCF800300368BC
:100AE0005B07FCD5F5E770B50E46D1B20446FFF7BB
:100AF00040FF91B24D1C012EADB20CD1FFF742FF69
:100B0000062102EB8202B2FBF1F189B22046FFF727
:100B100043FF256270BDFFF73AFF01EB8101F4E767
:100B2000024A136843F0807313607047001002405C
:100B300006280AD8DFE800F0040A0F14191E230063
:100B4000114A136843F48013136070470E4A136808
:100B500043F40013F8E70C4A136843F48003F3E707
:100B6000094A136843F40023EEE7074A136843F485
:100B70008023E9E7044A136843F40033E4E7024AB8
:100B8000136843F48033DFE70810024006280AD8D0
:100B9000DFE800F0040A0F14191E2300114A13683D
:100BA00043F48053136070470E4A136843F40053B4
:100BB000F8E70C4A136843F48043F3E7094A1368E3
:100BC00043F40063EEE7074A136843F48063E9E700
:100BD000044A136843F40073E4E7024A136843F4D9
:100BE0008073DFE70810024006280AD8DFE800F02B
:100BF000040A0F14191E2300114A136823F48053AA
:100C0000136070470E4A136823F40053F8E70C4A48
:100C1000136823F48043F3E7094A136823F400635D
:100C2000EEE7074A136823F48063E9E7044A136890
:100C300023F40073E4E7024A136823F48073DFE7C8
:100C40000810024008B5134B062821D8DFE800F051
:100C500004080C1014181C001868C0F3001008BD1C
:100C60001868C0F34010FAE71868C0F38010F6E780
:100C70001868C0F3C000F2E71868C0F38000EEE720
:100C80001868C0F34000EAE7186800F00100E6E7E2
:100C900000F0C2FD08100240024A136843F400034A
:100CA0001360704708100240024B1868C0F3C01070
:100CB000704700BF08100240062822D8DFE800F085
:100CC00004090E13181D1F000F4B1868C0F3406075
:100CD00070470D4B1868C0F3C06070470A4B186826
:100CE000C0F340707047084B1868C0F3404070472D
:100CF000054B1868C0F340007047044BF9E7044BFC
:100D0000F7E70020704700BF0010024020100240AB
:100D100024100240024608B51046FFF7CDFF002818
:100D2000FAD008BD06280CD8DFE800F004060C1144
:100D3000161B1D00FFF7F4BE0C4A136843F08063D6
:100D400013607047094A136843F08053F8E7074A75
:100D5000136843F48033F3E7044A136843F0010354
:100D6000EEE7034AF9E7034AF7E700BF0010024045
:100D7000201002402410024006280AD8DFE800F0C4
:100D8000040A0F14191E20000E4A136823F0807302
:100D9000136070470B4A136823F08063F8E7094A31
:100DA000136823F08053F3E7064A136823F4803373
:100DB000EEE7044A136823F00103E9E7024AF9E782
:100DC000024AF7E7001002402010024024100240BF
:100DD000024A136843F40023136070470010024076
:100DE000024A136823F40023136070470010024086
:100DF000034A136823F0030318431060704700BFD1
:100E000004100240034A136823F4701343EA80403D
:100E10001060704704100240034A136823F47063A3
:100E200043EA0020106070472C100240034A136808
:100E300023F4704343EA0030106070472C100240E6
:100E4000034A136823F4803343EA0040106070477C
:100E500004100240034A136823F4003343EA40407D
:100E60001060704704100240024B186800F4004004
:100E7000704700BF20100240024A136843F4004349
:100E8000136070472010024006283DD8DFE800F0CC
:100E900037373726370415001C4B1A6842F0010219
:100EA0001A601A689007FCD51A6822F440721A601A
:100EB0001A6842F480721A607047154B1A6842F043
:100EC00001021A601A689107FCD5104B1A6822F4C7
:100ED00040721A601A6842F40072ECE70D4B1A680F
:100EE00042F480321A601A689203FCD5074B1A68E4
:100EF00022F440721A601A6842F44072DBE7034A37
:100F0000136823F440731360704700BF2010024041
:100F10002410024000100240034A136823F44043A7
:100F200043EA80301060704704100240034A13689F
:100F300023F4605343EAC02010607047041002405D
:100F4000034A136823F4E06343EA0020106070470B
:100F500004100240034A136823F0F00343EA001030
:100F60001060704704100240044B1A6818B142F434
:100F700080021A60704722F48002FAE704100240EF
:100F8000034A136823F00F0318431060704700BF33
:100F90002C100240034A136823F0F00343EA0010C8
:100FA000106070472C100240044B1A6818B142F4CC
:100FB00080321A60704722F48032FAE72C10024027
:100FC000024B1868C0F38100704700BF0410024054
:100FD00008B50420FFF7A6FE0420FFF79BFE0020C3
:100FE000FFF706FF0020FFF7B5FF0320FFF794FF90
:100FF0000420FFF7A5FF0020FFF798FF022000F074
:101000001FFC0E20FFF7FEFE0020FFF719FFFFF781
:1010100087FD0020FFF77EFE0220FFF7E9FE044B6C
:10102000044A05491360054A1160054A136008BD6A
:101030000090D0030C0000200048E80110000020C0
:101040001400002008B50420FFF76CFE0420FFF711
:1010500061FE0020FFF7CCFE0020FFF77BFF03209E
:10106000FFF75AFF0420FFF76BFF0020FFF75EFF3A
:101070000F4A0120136843F48003136000F0E0FB83
:101080000A20FFF7BFFE0020FFF7DAFEFFF748FD5A
:101090000020FFF73FFE0220FFF7AAFE054B064A9D
:1010A00006491360064A1160064A136008BD00BF76
:1010B00004100240006CDC020C00002000366E01BF
:1010C000100000201400002008B50420FFF72AFEBD
:1010D0000420FFF71FFE0020FFF78AFE0020FFF725
:1010E00039FF0020FFF718FF0020FFF729FF00203D
:1010F000FFF71CFF002000F0A3FB0420FFF782FE97
:101100000020FFF79DFEFFF70BFD0020FFF702FE1A
:101110000220FFF76DFE044B044A1360044A13607B
:10112000044A136008BD00BF00366E010C000020A9
:10113000100000201400002008B50420FFF7F2FD85
:101140000420FFF7E7FD0020FFF752FE0320FFF722
:10115000E9FD0320FFF7DEFD0120FFF749FE002037
:10116000FFF7F8FE0020FFF7D7FE0020FFF7E8FEAC
:101170000020FFF7DBFE002000F062FB0120FFF7FC
:1011800041FE0120FFF75CFE0020FFF763FEFFF742
:10119000C7FC0020FFF7BEFD0220FFF729FE044B2D
:1011A000044A1360044A1360044A136008BD00BF78
:1011B00000366E010C0000201000002014000020FA
:1011C00008B50420FFF7AEFD0420FFF7A3FD0020C3
:1011D000FFF70EFE0320FFF7A5FD0320FFF79AFDA2
:1011E0000120FFF705FE0020FFF7B4FE0320FFF704
:1011F00093FE0420FFF7A4FE0020FFF797FE0220D5
:1012000000F01EFB0720FFF7FDFD0120FFF718FE91
:101210000020FFF71FFEFFF783FC0020FFF77AFD99
:101220000220FFF7E5FD044B044A05491360054A17
:101230001160054A136008BD00A24A040C0000209A
:1012400000512502100000201400002008B50420E1
:10125000FFF768FD0420FFF75DFD0020FFF7C8FDE4
:101260000320FFF75FFD0320FFF754FD0120FFF788
:10127000BFFD0020FFF76EFE0220FFF74DFE0420A9
:10128000FFF75EFE0020FFF751FE022000F0D8FAC3
:101290000420FFF7B7FD0120FFF7D2FD0020FFF784
:1012A000D9FDFFF73DFC0020FFF734FD0220FFF7DA
:1012B0009FFD044B044A05491360054A1160054A25
:1012C000136008BD00A24A040C0000200051250252
:1012D000100000201400002008B50420FFF722FDB4
:1012E0000420FFF717FD0020FFF782FD0320FFF722
:1012F00019FD0320FFF70EFD0120FFF779FD002007
:10130000FFF728FE0220FFF707FE0420FFF718FE74
:101310000020FFF70BFE022000F092FA0720FFF7F3
:1013200071FD0120FFF78CFD0120FFF793FDFFF712
:10133000F7FB0020FFF7EEFC0220FFF759FD044BFE
:10134000044A05491360054A1160054A136008BD47
:1013500000A24A040C0000200051250210000020C9
:101360001400002008B50320FFF7DCFC0320FFF782
:10137000D1FC0120FFF73CFD022000F061FA0020C3
:10138000FFF7E8FD0220FFF7C7FD0420FFF7D8FDB7
:101390000020FFF7CBFD0420FFF7FCFD0620FFF740
:1013A0003BFD0120FFF7BEFC0120FFF7B3FC00204E
:1013B000FFF750FD104A0420136843F48033136094
:1013C000FFF7DEFD0720FFF71DFD0120FFF738FDC9
:1013D0000020FFF7C9FDFFF7A3FB0020FFF79AFCF1
:1013E0000220FFF705FD054B054A06491360064A32
:1013F0001160064A136008BD2C10024000A24A0486
:101400000C000020005125021000002014000020D4
:10141000044B1A6842F480321A601A6822F480324F
:101420001A6070472010024003681943016070473A
:10143000036823EA010101607047036819430160F2
:101440007047036823EA010101607047430900F017
:101450001F02012003F1804303F504331968904013
:101460000843186070470121430903F1804303F5E5
:1014700004331A6800F01F0001FA00F022EA0000AD
:101480001860704700F01F024309012003F18043F8
:1014900003F5043319689040014319601A6822EA81
:1014A000000018607047430900F01F02012003F19B
:1014B000804303F50433196890400843186070476F
:1014C0000121430903F1804303F504331A6800F056
:1014D0001F0001FA00F022EA0000186070470000C7
:1014E000034A136823F0706343EA0060106070479A
:1014F00004100240032802D0052806D07047054A90
:10150000136843F4802313607047034A136843F061
:101510000403F8E70010024020100240032802D024
:10152000052806D07047054A136823F4802313600A
:101530007047034A136823F00403F8E700100240E1
:1015400020100240064A074B90421B6804BF064B1E
:101550001B6803EB5103B3FBF1F18160704700BFDF
:10156000003801401000002014000020C368082942
:101570000CBF23F4805343F48053C3607047036966
:1015800023F44053194301617047C36823F4C063D7
:101590001943C1607047C36823F00C031943C1604D
:1015A0007047436923F44073194341617047C3682E
:1015B00043F40053C3607047C36823F40053C3600F
:1015C000704738B504460D4600F049F829462046D4
:1015D000BDE8384000F03BB810B5044600F043F8D1
:1015E0002046BDE8104000F036B8436943F04003A0
:1015F00043617047436923F0400343617047436987
:1016000043F0800343617047436923F080034361E3
:101610007047C36843F02003C3607047C36823F07A
:101620002003C3607047C36843F08003C360704702
:10163000C36823F08003C3607047436943F001032C
:1016400043617047436923F0010343617047C1F36D
:101650000801416070474068C0F3080070470368A4
:101660001B06FCD5704703689B06FCD570470368D2
:101670000B4214BF012000207047FEE770470000B6
:10168000002238B51849194C19485318834217D30A
:101690000021184A934217D3174A184C1368184D63
:1016A00043F400731360AC4211D3164C164DAC4298
:1016B00011D3FEF7F5FD154C154DAC420FD338BDD7
:1016C000135953500432E0E719600433E2E754F849
:1016D000043B9847E7E754F8043B9847E7E754F89A
:1016E000043B9847E9E700BF00000020BC18000851
:1016F000180000204C05002014ED00E0BC18000884
:10170000BC180008BC180008BC180008BC18000869
:10171000BC180008012243099B0003F1604300F05C
:101720001F0003F5614302FA00F0186070470000E3
:101730000123420900F01F0003FA00F0014B43F8B7
:101740002200704780E100E043099B0003F1604301
:1017500003F562431A68012300F01F0003FA00F04A
:10176000104214BF184600207047012243099B0015
:1017700003F1604300F01F0003F5624302FA00F03A
:10178000186070470123420900F01F0003FA00F0BF
:10179000014B43F82200704780E200E043099B00C0
:1017A00003F1604303F561431A68012300F01F0051
:1017B00003FA00F0104214BF1846002070470000E2
:1017C000432893BF00F16040044B00F00F0000F588
:1017D00064408CBFC1540170704700BF14ED00E03D
:1017E00043099B0003F1604303F563431A68012337
:1017F00000F01F0003FA00F0104214BF184600204A
:1018000070470000EF289FBF024B1A681043186012
:10181000704700BF00EF00E0FEE708B5FFF7FCFFF0
:10182000024A136843F0100313607047002002401F
:10183000024A136823F0100313607047002002402F
:10184000034A136823F0070318431060704700BF72
:1018500000200240034B044A1A6002F188321A60E9
:10186000704700BF08200240230167454C485020C4
:101870002D20426C756570696C6C0D0A6932635F6E
:101880006D69746D2E630D0A4A616E203139203204
:10189000303230202D2031383A32313A32340D0A8C
:1018A000001B631B5B334A00307800303132333425
:0C18B000353637383961626364656600C4
:1018BC00BBAA000001000000AB18000800127A005F
:0818CC0000127A0000127A00FC
:040000050800168158
:00000001FF
